:020000040800F2
:100000005008002045020008EB200008E71D00080A
:10001000E92000083108000805270008000000005A
:10002000000000000000000000000000EF200008B9
:100030003308000800000000ED200008F12000084F
:100040005F0200085F0200085F0200085F0200080C
:100050005F0200085F0200085F0200085F020008FC
:100060005F0200085F0200085F0200085F020008EC
:100070005F0200085F0200085F0200085F020008DC
:100080005F0200085F0200085F0200085F020008CC
:100090005F0200085F0200085F0200085F020008BC
:1000A0005F0200085F0200085F0200085F020008AC
:1000B000992100085F0200085F0200085F02000843
:1000C0005F0200085F0200085F0200085F0200088C
:1000D0005F020008F92600085F0200085F020008BE
:1000E0005F0200085F0200085F0200085F0200086C
:1000F0005F0200085F0200085F0200085F0200085C
:100100005F0200085F020008A52100085F020008E6
:100110005F0200085F0200085F0200085F0200083B
:100120005F0200085F0200085F0200085F0200082B
:100130005F0200085F0200085F0200085F0200081B
:100140005F0200085F0200085F0200085F0200080B
:100150005F0200085F0200085F0200085F020008FB
:100160005F0200085F0200085F0200085F020008EB
:100170005F0200085F0200085F0200080000000044
:100180005F0200085F02000800F002F800F04AF881
:100190000AA090E8000C82448344AAF10107DA45E2
:1001A00001D100F03FF8AFF2090EBAE80F0013F0EA
:1001B000010F18BFFB1A43F001031847D04300009A
:1001C000F0430000103A24BF78C878C1FAD852072B
:1001D00024BF30C830C144BF04680C6070470000C1
:1001E0000023002400250026103A28BF78C1FBD840
:1001F000520728BF30C148BF0B607047642900F028
:10020000F980002070471FB504F0C0F800F0B4FA80
:1002100004000020002103F00BFB401C60601FBDA8
:1002200010B510BD00F083FA1146FFF7ECFF03F0A4
:10023000A3F900F0B3FA03B4FFF7F2FF03BC03F035
:1002400083F900000948804709480047FEE7FEE7B8
:10025000FEE7FEE7FEE7FEE7FEE7FEE7FEE7FEE776
:1002600004480549054A064B7047000089210008EB
:10027000890100085002002050080020500400208E
:1002800050040020704753EA020C00F069802DE909
:10029000F04B4FF00006002B1FBFB3FA83F503FAB3
:1002A00005F424FA05F65E4012BF1643B2FA82F551
:1002B00002FA05F4C5F120051EBF22FA05FC44EA46
:1002C0000C04203556EA044C4FEA144418BF641C51
:1002D0004FF000084FF00009904271EB030C39D346
:1002E000002919BFB1FA81F701FA07F6B0FA80F7D1
:1002F00000FA07F6C7F120071EBF20FA07FC46EAFE
:100300000C062037B6FBF4FCA7EB0507103F07F0FF
:100310001F0BCBF120060CFA0BFB2CFA06F644BFA0
:10032000B3460026202FA4BF5E464FF0000B5BEAC9
:10033000060C08BF4FF0010B19EB0B09ABFB027C5D
:1003400048EB0608C01B06FB02CC0BFB03CC71EB91
:100350000C01C1E70B46024641464846BDE8F08B1A
:1003600013B54FF000004FF00001AFF30080BDE87F
:100370001C4070470FB4044910B503AA029800F05E
:1003800015F910BC5DF814FB5C0000202DE9F0416C
:100390000E460446002020622046E168884730B3BC
:1003A000252805D0D4E901219047206A401CF2E7B6
:1003B000E168204600278847050018D0A5F14100D4
:1003C000192802D820354FF40067324629462046C6
:1003D0002760FFF713FF40B1012804D0F61D26F077
:1003E00007060836D8E7361DD6E72846DAE7206A3A
:1003F000BDE8F0812DE9F04106460024106875291A
:10040000314616A510D0AFF30080002802DA404232
:1004100013A507E031688A0701D512A502E0490754
:1004200004D511A5012401E0AFF3008000210A22C8
:1004300006F1240709E0B0FBF2FCB0FBF2F302FB8B
:100440001C00303078541846491C0028F3D123464C
:100450002A463046BDE8F04100F04FB800000000E9
:100460002D0000002B0000002000000070B50646A3
:1004700000F034F80468054630460A22002100F0F6
:10048000A7F82C6070BD4FF0000200B513469446EB
:100490009646203922BFA0E80C50A0E80C50B1F1DC
:1004A0002001BFF4F7AF090728BFA0E80C5048BFF0
:1004B0000CC05DF804EB890028BF40F8042B08BF8E
:1004C000704748BF20F8022B11F0804F18BF00F88A
:1004D000012B70477047704770477047004870475E
:1004E000EC01002010B5FFF7F9FF006810BD10B552
:1004F0000446FFF7F3FF046010BD2DE9F0470D46F9
:1005000099469246044600F124080168880604D5FD
:10051000E06921F01001216000E00120A84201DD26
:10052000471B00E00027A1697A1902EB0900081AAD
:10053000A0612078C00602D42046AFF300800026D8
:1005400008E0D4E901211AF806009047206A401C0F
:10055000761C20624E45F4DB2078C0060AD5204682
:10056000AFF3008006E0D4E9012130209047206AF3
:10057000401C2062381EA7F10107F4DC07E0D4E933
:10058000012118F805009047206A401C2062281EAF
:10059000A5F10105F3DC2046AFF3008020780006CA
:1005A00002D50220BDE8F0870120FBE7074B70B5BC
:1005B0000D467B4400F055F80446284600F0B3F899
:1005C00010B14FF0FF3070BD204670BDAF2F00005E
:1005D0002DE9F04791460F4680460446002614F860
:1005E000015B2DB100F030F80068405DC007F6D126
:1005F0002B2D02D02D2D18D0641E4A463946204698
:1006000000F042F827B13968A14201D1C7F8008053
:100610004FF0020471050BD54042002803DDFFF7BF
:100620005DFF0460A007BDE8F08746F48066E4E75C
:100630000028F8DAFFF752FF04606FF00040F2E79D
:1006400000487047EC01002010B500F095F8001D3F
:1006500010BD00BFDD31000001694A1C026108784D
:10066000704700B58FB0CDE90131002105910549F2
:100670007944CDE9031011466846FFF787FE0FB0B5
:1006800000BD0000E5FFFFFF2DE9F05F8246154643
:100690008B4600270AF10104B9460078302801D0C2
:1006A0009DB113E014F8010B0127782803D05828D6
:1006B00001D045B10AE00DB1102D07D1002714F883
:1006C000010B102502E0082500E00A250026B046AF
:1006D0000EE005FB080005FB06F101271FFA80F874
:1006E00001EB1046B6F5803F00D3B94614F8010B74
:1006F000294600F045F80028EBDABBF1000F05D0E1
:100700000FB1641E00E05446CBF80040B9F1000F71
:1007100006D0FFF7E3FE02210160C81EBDE8F09F8E
:1007200048EA0640FAE7007B00F080007047754613
:10073000FFF786FFAE4605006946534620F00700E6
:10074000854618B020B5FFF78BFDBDE820404FF07F
:1007500000064FF000074FF000084FF0000B21F0AB
:100760000701AC46ACE8C009ACE8C009ACE8C00978
:10077000ACE8C0098D467047004870470C02002065
:100780003A2800D2303820F02002412A01D3A2F1C9
:100790003700884201D34FF0FF30704710B5044650
:1007A000AFF300802046BDE81040FFF744BD0000D5
:1007B0004FF0013C50F8042B51F8043B9A4221D1F0
:1007C000A2EB0C03934313EACC1317D150F8042B7C
:1007D00051F8043B9A4215D1A2EB0C03934313EA60
:1007E000CC130BD150F8042B51F8043B9A4209D199
:1007F000A2EB0C03934313EACC13DBD04FF00000C1
:10080000704700BFD01A01BAB1FA81F101F01801A6
:1008100022FA01F0CB40C1F12001DBB2C0B2C01A14
:100820002CFA01F3D11A914311EAC311E6D17047B2
:10083000FEE7704772B6FEE72DE9F0410446876D8A
:1008400000F058F9064694F835000025022806D035
:100850008020606584F834500120BDE8F081206874
:10086000016821F0160101602068416921F08001D2
:100870004161206C08B9A06C20B12068016821F0AA
:10088000080101602068016821F0010101600CE0AD
:1008900000F030F9801B052807D92020606503206F
:1008A00084F8350084F83450D7E720680068C00722
:1008B000EED194F85C103F208840B860012084F8A5
:1008C000350084F834500020C7E790F8351002292D
:1008D00003D08021416501207047052180F8351043
:1008E0000068016821F001010160002070470000EC
:1008F0002DE9F84FDFF8BCA10022012503264FF0B7
:100900000F090AF1040BAAF1040E00BF0B6805FAE7
:1009100002F42340A34270D10F7907F00307012F9F
:1009200001D0022F16D187684FEA420806FA08FC68
:1009300027EA0C07D1F80CC00CFA08FC4CEA070CAB
:10094000C0F808C04768A7430C79C4F3001494406A
:100950003C4344600C79E443A4070AD0C4684FEADE
:10096000420C06FA0CF7BC438F6807FA0CF72743D2
:10097000C7600C7904F00304022C12D1D40800EBF8
:10098000840CDCF820405707FF0E09FA07F824EA28
:100990000804D1F8108008FA07F848EA0408CCF8EF
:1009A000208004684FEA420C06FA0CF7BC430F792A
:1009B00007F0030707FA0CF7274307604C6814F4A5
:1009C000403F70D03C4C276847F48047276024683C
:1009D00022F0030704F480440094384C07EB040C25
:1009E000DCF8084897074FEA177809FA08F7BC437C
:1009F000334FB84202D1002724E054E0314FB842CF
:100A000001D101271EE0304FB84201D1022719E081
:100A10002E4FB84201D1032714E02D4FB84201D127
:100A200004270FE02B4FB84201D105270AE02A4FD7
:100A3000B84201D1062705E0284FB84201D1072767
:100A400000E0082707FA08F72743CCF80878DAF817
:100A500000405746D1F804C09C435FEACC2C00D537
:100A60001C433C60DBF800405F46D1F804C09C4367
:100A70005FEA8C2C00D51C433C60DEF800407746D2
:100A8000D1F804C09C435FEA8C3C00D51C433C6019
:100A9000084F083F3C68D1F804C09C435FEACC3C57
:100AA00000D51C433C60521C102AFFF42FAFBDE858
:100AB000F88F0000083C01404438024000300140FB
:100AC000000002400004024000080240000C024006
:100AD000001002400014024000180240001C0240B6
:100AE0000069084000D0012070470AB18161704759
:100AF0000904FBE70148806870470000600000209F
:100B000002488168027811448160704760000020CB
:100B10000B4810B5016841F400710160016841F4AF
:100B200080610160016841F480710160032000F080
:100B300071F8032000F006F800F024F8002010BD42
:100B4000003C024070B50D4D04464FF47A71287890
:100B5000B1FBF0F00A490968B1FBF0F000F00CFBC2
:100B600048B9102C07D200222146501E00F032F85E
:100B700000206C6070BD012070BD0000600000208E
:100B80006C0000200B4882B0016841F48041016094
:100B9000006800F4804000900648001F016841F0A2
:100BA00080510160006800F080500090052002B084
:100BB00000F030B844380240002809DB00F01F0282
:100BC000012191404009800000F1E020C0F80011AF
:100BD00070470000F0B40E4B1B680C46C3F30223B1
:100BE000C3F10705042D00D90425191D072901D2D9
:100BF000002300E0DB1E012606FA05F1491E214014
:100C000099409E40761E16403143F0BC01F093BDE2
:100C10000CED00E0064900F0070208684FF6FF03FC
:100C2000184040EA0220034A104308607047000061
:100C30000CED00E00000FA052DE9F0470E46050036
:100C400065D0DFF81481D8F80000F7B200F0070093
:100C5000B04207D288F80070D8F8000000F0070012
:100C6000B04254D128683D4C810712D5400703D5C6
:100C7000206840F4E05020602878000703D5206801
:100C800040F4604020602068A96820F0F00008432C
:100C900020602878C0072DD03049686808390128BD
:100CA00012D0022813D0032811D00968890700291F
:100CB0002DDA216821F0030101432160FFF71AFFBB
:100CC000814641F2883A0EE009688903EFE7096836
:100CD0008901ECE7FFF70EFFA0EB0901514502D9AE
:100CE0000320BDE8F0872068696800F00C00B0EBD5
:100CF000810FEFD1D8F80010404601F00701B14252
:100D000007D90770006800F00700B04201D0012049
:100D1000E7E72878400705D52068E96820F4E05027
:100D2000084320602878000706D52068296920F448
:100D3000604040EAC100206000F038F82168084AAD
:100D4000C1F30311515CC8400649086006480068B9
:100D5000FFF7F8FE0020C4E7003C024008380240DC
:100D6000864400086C000020640000200448054907
:100D700000680968044AC1F38221515CC840704789
:100D80006C000020083802409644000804480549D9
:100D900000680968044AC1F34231515CC840704799
:100DA0006C0000200838024096440008154810B531
:100DB000006810F00C02144813D04110042A0FD020
:100DC000082A0ED10F4C241F2268236802F03F022C
:100DD0005B0207D52068C0F38810A0FB010106E084
:100DE000084610BD2168C1F38811A1FB0001002352
:100DF000FFF749FA2168C1F30141491C4900B0FBE2
:100E0000F1F010BD083802400024F4002DE9F84F3D
:100E100004006ED02078DFF84C93C007A9F10405D8
:100E20004AD009F104000168C1F38101012908D009
:100E30000068C0F3810002280AD1D9F800004002FE
:100E400006D52868800337D560680028E1D033E0F4
:100E50006068B0F5803F10D0B0F5A02F286810D0A2
:100E600020F480302860286820F4802028606068A2
:100E7000A8B1FFF73FFE06460DE0286840F4803039
:100E8000F4E740F480202860F7E700BFFFF732FE68
:100E9000801B642873D828688003F7D50CE0FFF71F
:100EA00029FE064605E000BFFFF724FE801B6428EC
:100EB000F0D828688003F7D42078DFF8AC82800768
:100EC0004FF0000A3ED5A748001D016811F00C0F35
:100ED00008D00068C0F3810002280BD1D9F80000C7
:100EE000400207D42868800716D5E068012800D1A1
:100EF00012E033E1E068B8B10120C8F80000FFF764
:100F0000F9FD064605E000BFFFF7F4FD801B02284F
:100F1000C0D828688007F7D52868216920F0F80034
:100F200040EAC10028600DE0C8F800A0FFF7E2FD2C
:100F3000064604E0FFF7DEFD801B02281FD8286864
:100F40008007F7D42078000722D5864F874861694B
:100F5000703771B101210160FFF7CCFD064604E056
:100F6000FFF7C8FD801B022809D838688007F7D52D
:100F70000EE0C0F800A0FFF7BDFD064605E082E0E8
:100F8000FFF7B8FD801B02287DD838688007F7D4AA
:100F90002078400768D5DFF8CCB100270BF13C0B77
:100FA000DBF80000C0000BD4DBF8001041F08051EA
:100FB000CBF80010DBF80000012700F08050009013
:100FC0006B4E3068C00510D4306840F480703060DB
:100FD000FFF790FD009005E0FFF78CFD0099401AA7
:100FE000022850D83068C005F6D55E4EA0686C3631
:100FF00001280FD00528306810D020F001003060A3
:10100000306820F004003060A068B8B1FFF772FDCE
:1010100000900FE0306840F00100F4E740F0040079
:101020003060F7E7FFF766FD0099411A41F288301A
:10103000814266D830688007F4D50EE0FFF75AFD8C
:10104000009007E0FFF756FD0099411A41F2883001
:10105000814256D830688007F4D42FB1DBF80010F5
:1010600021F08051CBF80010A069C8B33D49091D9B
:101070000968C1F3810102294AD00228504607D0ED
:10108000C8F8600000E03CE0FFF734FD04463BE0B8
:101090004746C8F86000FFF72DFD064605E000BF93
:1010A000FFF728FD801B02282BD828688001F7D481
:1010B000D4E907010843A16A2E4A490802EB01411D
:1010C000626A41EA8211084394F82C1040EA0161F7
:1010D000C9F8001001203866FFF70CFD044606E051
:1010E0003EE000BFFFF706FD001B022809D8286874
:1010F0008001F7D534E000BFFFF7FCFC001B02289D
:1011000002D90320BDE8F88F28688001F4D427E0D5
:101110000128F7D0D9F80000E26900F4800191427B
:101120001CD1226A00F03F01914217D147F6C071ED
:10113000626A0140B1EB821F10D1A26A4FF0FF3307
:1011400000F4403103EB5202B1EB024F06D194F8A8
:101150002C1000F07060B0EB016F01D00120D1E7DE
:101160000020CFE70438024000004742800E47428B
:10117000007000400000FFFF10B5401EB0F1807FFE
:1011800001D3012010BD4FF0E02460610F216017F2
:1011900001F0D1FA0020A06107202061002010BDDD
:1011A0007047704770B590F83C20012A32D0012476
:1011B00080F83C40022280F83D2003685A689D6810
:1011C00022F070060A6832435A60134B02689A4252
:1011D00014D0B2F1804F11D0104B9A420ED0104B68
:1011E0009A420BD00F4B9A4208D00F4B9A4205D02F
:1011F0000E4B9A4202D00E4B9A4204D1496825F018
:1012000080031943916080F83D40002180F83C1034
:10121000084670BD022070BD00000140000400407F
:1012200000080040000C0040000401400040014064
:101230000018004010B5040003D094F83D0010B130
:1012400007E0012010BD002084F83C00204600F09B
:101250001FF8022084F83D00211D206800F0A8FF3F
:10126000012084F8460084F83E0084F83F0084F8AA
:10127000400084F8410084F8420084F8430084F878
:10128000440084F8450084F83D00002010BD0000B3
:1012900008B501681F48B1F1804F0AD01E4A91423B
:1012A00016D1016841F002010160006800F00200FF
:1012B00018E0016841F0010101600068002200F0BF
:1012C0000100009011461C20FFF784FC1C201CE04C
:1012D000124A914208D1016841F00401016000689E
:1012E00000F00400009008BD0D4A9142FBD1016856
:1012F00041F0080101600068002200F00800009041
:1013000011463220FFF766FC3220BDE80840FFF7A7
:1013100053BC000040380240000400400008004078
:10132000000C004090F83D10012901D001207047C9
:10133000022180F83D100168CA6842F00102CA60CB
:1013400000681149884214D0B0F1804F11D00F4984
:1013500088420ED00E4988420BD00E49884208D0F0
:101360000D49884205D00D49884202D00C49884277
:1013700004D1816801F00701062903D0016841F01A
:10138000010101600020704700000140000400409E
:1013900000080040000C00400004014000400140F3
:1013A000001800400168CA6822F00102CA600168A2
:1013B0000A6A41F211131A4207D10A6A9B101A42B3
:1013C00003D10A6822F001020A60012180F83D1071
:1013D0000020704770B5044690F83C0000250128B5
:1013E00017D0012684F83C60022084F83D00206874
:1013F000826822F0770222F47F42826008685028D7
:1014000038D00DDC20284FD005DC90B3102811D146
:101410004AE0022070BD302846D040280AD13BE087
:1014200060282FD070280DD0B0F5805F03D0B0F5C4
:10143000005F12D0012584F83D60002084F83C0054
:10144000284670BDCB68D1E90121206800F029FF52
:101450002068816841F0770109E0CB68D1E901217A
:10146000206800F01EFF2068816841F4804181609F
:10147000E1E719E0CA684968206800F0E7FF5021F9
:10148000206806E0CA684968206800F0F0FF602123
:10149000206800F010FFCEE7CA684968206800F0B5
:1014A000D5FF40212068F4E7226801461046F0E7A6
:1014B00070472DE9F04104460068C66805694FF0A1
:1014C0000007A90713D5B10711D5F91E0161012045
:1014D0002077206880698007204602D0FFF7E8FF68
:1014E00004E000F0BDF8204600F04FF927776807C8
:1014F00016D5700714D521686FF00400086102202A
:1015000020772068806910F4407F204602D0FFF7E2
:10151000CFFF04E000F0A4F8204600F036F927776A
:10152000280715D5300713D521686FF0080008612A
:10153000042020772068C0698007204602D0FFF78A
:10154000B7FF04E000F08CF8204600F01EF9277782
:10155000E80616D5F00614D521686FF01000086172
:10156000082020772068C06910F4407F204602D010
:10157000FFF79EFF04E000F073F8204600F005F945
:101580002777E80708D0F00706D021686FF0010040
:101590000861204600F09CF9280608D5300606D5DB
:1015A00021686FF0800008612046FFF7F9FD6806AA
:1015B00008D5700606D521686FF040000861204606
:1015C00000F0A8F9A8060AD5B00608D521686FF082
:1015D000200008612046BDE8F041FFF7E2BDBDE80C
:1015E000F081000030B587B0044614216846FEF74C
:1015F0004AFF2468154D0022154802210323AC42FE
:101600000ED1046844F001040460006800F0010099
:10161000059040208DE80F00049169460D4810E0C8
:101620000D4DAC420FD1046844F00804046000681A
:1016300000F008000590A8148DE80F000491694699
:101640000648FFF755F907B030BD00000004004020
:10165000303802400000024000080040000C024008
:10166000704770B5044690F83C0000260D460128EE
:101670000FD0012084F83C006AB1042A1DD0082A4A
:101680002FD00C2A3FD00126002084F83C003046A1
:1016900070BD022070BD206800F016FE20688169D0
:1016A00041F0080181612068816921F004018161B4
:1016B000206881692A69114311E0206800F034FE36
:1016C0002068816941F4006181612068816921F4A9
:1016D00080618161206881692A6941EA0221816112
:1016E000D2E7206800F056FE2068C16941F0080189
:1016F000C1612068C16921F00401C1612068C1692C
:101700002A69114311E0206800F078FE2068C16961
:1017100041F40061C1612068C16921F48061C16147
:101720002068C1692A6941EA0221C161ACE710B5AC
:10173000040003D094F83D0010B107E0012010BD73
:10174000002084F83C00204600F01EF8022084F8B7
:101750003D00211D206800F02BFD012084F846008B
:1017600084F83E0084F83F0084F8400084F841008B
:1017700084F8420084F8430084F8440084F845006B
:1017800084F83D00002010BD7047704710B5044636
:10179000022249B104290ED0082913D094F841003F
:1017A000012816D0012010BD94F83E000128F9D17F
:1017B00084F83E200FE094F83F000128F2D184F82D
:1017C0003F2008E094F840000128EBD184F8402045
:1017D00001E084F841200122206800F055FD1649FF
:1017E0002068164A884201D0904203D1436C43F4EA
:1017F000004343642068884213D0B0F1804F10D07A
:101800000F4988420DD00F4988420AD00E498842BC
:1018100007D0904205D00D49884202D00C49884239
:1018200004D1816801F00701062903D0016841F065
:1018300001010160002010BD0000014000040140D2
:101840000004004000080040000C0040004001403F
:101850000018004030B504460D460068002200F034
:1018600013FD194B41F2111120688A10984202D0E1
:10187000164B984209D1036A0B4206D1036A134200
:1018800003D1436C23F4004343642068036A0B4292
:1018900006D1016A114203D1016821F00101016002
:1018A00001203DB1042D08D0082D09D084F8410055
:1018B000002030BD84F83E00FAE784F83F00F7E7E7
:1018C00084F84000F4E700000000014000040140FB
:1018D00030B50D4A002301240C49904207D1CA6952
:1018E000521CCA614D68AA4201D14C61CB61084AC1
:1018F000904207D1086A401C08620A68904201D1F0
:101900008C610B6230BD0000480100200000002007
:10191000700000207047704770470000F8B50168FC
:1019200004460868CA684B6910F00F0F4FF00005B5
:1019300059D003F0010602F49077374365D0C10710
:1019400005D0D10503D5616C41F001016164410707
:1019500005D5D90703D0616C41F0020161648107AC
:1019600005D5D90703D0616C41F00401616401071A
:1019700007D502F02001314303D0616C41F008012A
:101980006164616C00293AD0800604D5900602D5C6
:10199000204600F0ADFD20684069616CC0F3801006
:1019A000090700D460B3204600F07BFD2068406941
:1019B000400621D52068143050E8001F21F0400176
:1019C00040E80012002AF5D1E06BA8B16E4901652C
:1019D000E06BFEF77AFF002811D0E06B016D01B0DB
:1019E000BDE8F040084783060FD593060DD5204685
:1019F000BDE8F84000F07CBD2046FFF78DFFF8BD44
:101A00002046FFF789FF6564F8BD266B2023012E71
:101A10007DD1C6067BD5D60679D508684868009082
:101A200048694FF00206400641D5E16B08684068FE
:101A30000004000CE8D0A28D8242E5D9E085C86997
:101A4000B0F5807F2DD020680C3050E8001F21F4C5
:101A5000807140E80012002AF5D12068143050E867
:101A6000001F21F0010140E80012002AF5D1206892
:101A7000143050E8001F21F0400140E80012002A15
:101A8000F5D184F84230256320680C3050E8001FFF
:101A900021F0100140E80012002AF5D1E06BFEF7BA
:101AA000CBFE6663A08DE18D401A81B22AE0A08D45
:101AB000E18D401A81B2E08D0028A5D00029A3D085
:101AC00022680C3252E8000F20F4907042E80007C0
:101AD000002FF5D12068143050E8002F22F00102C9
:101AE00040E80027002FF5D184F8423025632068B4
:101AF0000C3050E8002F22F0100240E80023002BA9
:101B0000F5D166632046FFF706FFF8BDFFE705063F
:101B10002BD5150629D594F841002128F5D1A068C8
:101B2000B0F5805F01D12069B0B1206A411C21620B
:101B3000216800784860E08C401E0004000CE084BE
:101B4000E3D12068C16821F08001C1602068C168CC
:101B500041F04001C160D8E7206A0088C0F3080066
:101B60004860206A801C2062E5E74006CDD550061B
:101B7000CBD5CA68204622F04002CA6084F84130C2
:101B800000F030F9C1E700009324000870B50400AC
:101B900004D094F84100002510B106E0012070BD8A
:101BA00084F84050204600F023F8242084F84100B7
:101BB0002068C16821F40051C160204600F0FAFCA1
:101BC0002068016921F4904101612068416921F098
:101BD0002A0141612068C16841F40051C160656417
:101BE000202084F8410084F842006563002070BD25
:101BF00010B586B0044614216846FEF744FC1D4922
:101C00002068884234D11C480021026842F010024A
:101C10000260006800F01000059017481438026850
:101C200042F001020260006800F0010005904FF4EC
:101C3000C06000900220CDE901010320039007203D
:101C4000049069460D48FEF753FE0022012125202D
:101C5000FEF7C0FF2520FEF7AFFF09480168CA68FC
:101C600042F04002CA600068C16841F02001C160D2
:101C700006B010BD00100140443802400000024090
:101C8000A401002090F84230202B01D002207047A0
:101C900021B11AB10023036300F012BD0120704787
:101CA00070B54B494B4C88422DED048B86B003D167
:101CB000494D2878392806D04FF0FF30206106B012
:101CC000BDEC048B70BD01262661B5F80100ADF8AE
:101CD0000000E8788DF80200686802902889ADF865
:101CE0000400A87A8DF80600D5F80B0004900020B7
:101CF0008DF803008DF80C008DF807008DF81400A6
:101D00006846FEF7B3FB606302A8FEF7AFFBA06373
:101D100001A8FEF7ABFBE06304A8FEF7A7FB206475
:101D2000E87B9FED2E9B30386064287C3038A064BF
:101D3000687C3038E064A97C3039216509281ED0E0
:101D4000A660616B44F6206292FBF1F1616501F0DF
:101D5000D4FF41EC110BB0EE490AF0EE690A00F035
:101D6000FBFCB0EE408AF0EE608AA06B01F0C5FF8C
:101D700053EC182B02F014F801F090FF6060206D16
:101D800009281ED0E660E16B42F2283292FBF1F1A5
:101D9000A16501F0B2FF41EC110BB0EE490AF0EE83
:101DA000690A00F0D9FCB0EE408AF0EE608A206C3F
:101DB00001F0A3FF53EC182B01F0F2FF01F06EFFCE
:101DC0002060132204490248FFF75CFF77E7000018
:101DD000A40100200000002090010020000000006D
:101DE000000024407047FEE72DE9F04186B0142141
:101DF0006846FEF748FB2A480025016841F02001AB
:101E00000160016801F020010591016841F0800145
:101E10000160016801F080010591016841F0040151
:101E20000160016801F004010591016841F00101C0
:101E30000160016801F001010591016841F00801AC
:101E400001600068174F00F008004FF4C06405906F
:101E5000012221463846FEF748FEDFF84C8000227A
:101E600030214046FEF741FE009401240326CDE9CF
:101E70000246694638460194FEF73AFD0F20CDE947
:101E80000005694602944046FEF732FD30208DE899
:101E9000710069464046FEF72BFD06B0BDE8F081B3
:101EA00030380240001402400008024010B586B0ED
:101EB00000241648009401940294039404944FF073
:101EC0008041059401605321C0E901140921C0E952
:101ED000031480218161FFF7ADF908B1FEF7AAFC78
:101EE0004FF48050009069460848FFF773FA08B134
:101EF000FEF7A0FC049404A904480594FFF752F9E6
:101F0000002801D0FEF796FC06B010BD700000203E
:101F100010B58EB000240794089409940A940B9489
:101F20001C2168460C94FEF7AEFA1F481D4901605B
:101F30005321C0E901146321C0E903148461FFF750
:101F400079F908B1FEF776FC4FF48050079007A9A5
:101F50001548FFF73FFA08B1FEF76CFC1248FFF78F
:101F6000E6FB08B1FEF766FC0B940BA90E480C9437
:101F7000FFF718F908B1FEF75DFC602000903220F1
:101F80000190022002900022694604940648FFF75F
:101F900068FB08B1FEF74EFC0348FFF723FB0EB0C9
:101FA00010BD000000040040B800002010B58EB045
:101FB00000240794089409940A940B941C21684601
:101FC0000C94FEF760FA1F481D49016042F2CF01F0
:101FD000C0E901146321C0E903148461FFF72AF901
:101FE00008B1FEF727FC4FF48050079007A9154869
:101FF000FFF7F0F908B1FEF71DFC1248FFF797FB59
:1020000008B1FEF717FC0B940BA90E480C94FFF7D0
:10201000C9F808B1FEF70EFC602000903220019054
:10202000022002900022694604940648FFF719FB3B
:1020300008B1FEF7FFFB0348FFF7D4FA0EB010BD5E
:10204000000800400001002010B586B000241748A9
:10205000009401940294039404941349059401603C
:102060005321C0E901140921C0E9031480218161D1
:10207000FFF7E0F808B1FEF7DDFB4FF48050009069
:1020800069460A48FFF7A6F908B1FEF7D3FB0494A6
:1020900004A906480594FFF785F8002801D0FEF74B
:1020A000C9FB06B010BD0000000C00404801002034
:1020B0000C4810B50A4901604FF4E131416000213C
:1020C00081600C22C160C0E904128161C161FFF727
:1020D0005DFD002803D0BDE81040FEF7ABBB10BD8E
:1020E00000100140A4010020FEE7FEE770477047A2
:1020F000FEF706BD30B593B030216846FEF7C3F950
:1021000014210CA8FEF7BFF91D480025016841F015
:1021100080510160006800F08050119019480168FA
:1021200041F4804101600068022400F48040119075
:1021300001200090000401908001CDE9064008AA2A
:102140000420A82182E813000B906846FEF75EFE8B
:1021500008B172B6FEE70CA90F2081E831004FF4F8
:10216000A0500F904FF48050109005210CA8FEF75E
:1021700063FD002801D072B6FEE713B030BD000049
:1021800040380240007000400248016841F470018C
:102190000160704788ED00E00148FFF78AB9000050
:1021A000700000200148FFF784B9000048010020BA
:1021B000F0B50268294C2A4D2A4E2B4F2B4B4FF07D
:1021C000804CA04209D0604507D0A84205D0B0425B
:1021D00003D0B84201D0984204D122F0700E4A6870
:1021E00042EA0E02A0421BD0604519D0A84217D087
:1021F000B04215D0B84213D0984211D01C4DA8421D
:102200000ED01C4DA8420BD01B4DA84208D01B4D30
:10221000A84205D01A4DA84202D01A4DA84203D1B7
:1022200022F44075CA682A434D6922F080022A438D
:1022300002608A68C2620A688262A04201D0984243
:1022400001D109690163012141610169C90703D015
:10225000016921F001010161F0BD000000000140B1
:102260000004004000080040000C00400004014051
:102270000040014000440140004801400018004077
:10228000001C00400020004010B501F01F03012198
:10229000046A99408C430462016A9A4011430162C6
:1022A00010BD10B5846842EA032224F47F440A4337
:1022B0002243826010BD826822F070020A4342F01D
:1022C0000701816070470000F0B5036A026A22F0DE
:1022D0000102026242688469124E24F073050C68A0
:1022E0002C4323F002058B682B430D4DA84201D0EF
:1022F000B04205D123F00807CB683B4323F0040329
:10230000A84201D0B04205D14D6922F44072154374
:102310008A692A4342608461496841630362F0BD6F
:102320000000014000040140F0B5026A036A23F096
:1023300010030362436884690D6824F4E64444EAA8
:1023400005248D6822F0200242EA05120F4D104E3E
:10235000A84201D0B04206D1CF6822F0800242EA02
:10236000071222F04002A84201D0B04207D14D69C5
:1023700023F4406343EA85038D6943EA85034360A0
:102380008461496881630262F0BD00000000014081
:1023900000040140F0B5026A036A23F4807303620B
:1023A0004368C46922F4007224F073050C68124E6D
:1023B0002C438D6842EA05220E4DA84201D0B0425E
:1023C00006D1CF6822F4006242EA072222F480623A
:1023D000A84201D0B04207D14D6923F4405343EAEB
:1023E00005138D6943EA05134360C4614968C163FD
:1023F0000262F0BD000001400004014030B5046AF3
:10240000026A22F4805202624268C3690D6823F4B2
:10241000E64343EA05238D6824F4005444EA053476
:10242000084DA84202D0084DA84204D14D6922F4BB
:10243000804242EA85124260C361496801640462D5
:1024400030BD0000000001400004014010B5036AE7
:10245000046A24F001040462846924F0F00444EA6C
:10246000021423F00A020A438461026210BD10B50F
:10247000036A046A24F010040462846923F0A00350
:1024800024F4704444EA023243EA01118261016299
:1024900010BD10B5806B0021C185C184FFF73CFAE7
:1024A00010BD01680C3151E8002F22F4907241E810
:1024B0000023002BF5D10168143151E8002F22F0E0
:1024C000010241E80023002BF5D1016B012909D15C
:1024D00001680C3151E8002F22F0100241E800237E
:1024E000002BF5D1202180F84210002101637047B4
:1024F00008B590F84210222901D0022008BD826858
:102500004FF480539A4201D1016921B1816A9A4204
:102510001BD04AB10AE00268816A5268C2F308021D
:102520000A80816A891C08E0026972B102685268F7
:1025300002F07F020A70816A491C8162C18D491EC6
:102540000904090CC18503D01BE002685268F1E759
:102550000168CA6822F02002CA600168CA6822F4D1
:102560008072CA6001684A6922F001024A61202132
:1025700080F8421000214163026B012A03D0FFF76B
:102580008FFB002008BD016301680C3151E8002F6A
:1025900022F0100241E80023002BF5D101680A68FF
:1025A000D20602D50A6849680091818DFFF7B3F918
:1025B000E7E7000070B5044600680169E26821F4AD
:1025C0004051114301612169A068E26908436169D2
:1025D000114308432168CA6849F20C639A430243D5
:1025E000CA6020684169A26921F4407111434161C8
:1025F00031492068884202D03049884202D1FEF732
:10260000C5FB01E0FEF7B2FBE26900231921642556
:102610003226B2F5004F626828D0A0FB0101930F6B
:102620009200FDF730FE0146B0FBF5F06FF01802A6
:10263000504301EB800006EB0010B0FBF5F000F01A
:10264000F002B1FBF5F002EB0012B1FBF5F06FF018
:102650001803584301EB800006EB0010B0FBF5F0C7
:1026600000F00F0021681044886070BDA0FB0101DC
:1026700092185B41FDF707FE0146B0FBF5F0020141
:10268000B1FBF5F06FF01803584301EB800006EB47
:10269000C000B0FBF5F000F0F80002EB4002B1FB27
:1026A000F5F0584301EB800006EBC000B0FBF5F0FD
:1026B00000F00700D6E700000010014000140140C0
:1026C00081628285C28500214164222180F8421006
:1026D000016921B10168CA6842F48072CA60016868
:1026E0004A6942F001024A610068C16841F0200174
:1026F000C1600020704700000148FFF70FB90000DB
:10270000A4010020FEE703B401984100009850EABC
:10271000C12018BF04204A0D18BF40F0010040F24C
:10272000FF72B2EB515F08BF40F00200012808BF02
:10273000052002B070470907090E002804DB00F1EC
:10274000E02080F80014704700F00F0000F1E02056
:1027500080F8141D704700002DE9F04D2DED040B9D
:102760002DED0E8B96B0DDE92550279CDDF890A06D
:1027700025F0004624F00048BAF1000F14BF0121F3
:10278000002101EB4502FC4953184A1093422AD319
:10279000002814BF0123002303EB44030B44F74933
:1027A0008B4220D358EA00019FEDF59B76D0DFF8ED
:1027B000D8B35D4503D1BAF1000F05D188E0BAF175
:1027C000000F08BF002100D0012101EB450111F5E8
:1027D000001F08D8002814BF0121002101EB44018B
:1027E00011F5001F0BD99DED261B9DED240B16B096
:1027F000BDEC0E8B04B0BDE8F04D00F069BE0027C3
:10280000002DBCBFE149884521DAE1498845A8BFD0
:1028100002271CDAC3451ADCDE4901EB28511429D2
:1028200008DDC1F1340220FA02F101FA02F282421B
:102830000DD108E058B9C1F1140228FA02F101FAE9
:1028400002F2424503D101F00101C1F1020756EA4B
:102850000A0124D1002C22DA002D18BF022F01D04A
:10286000012F0AD00220FDF742FE16B0BDEC0E8B00
:1028700004B0BDE8F04D00F013BE0220FDF737FEB6
:1028800000F00EFE51EC100B00F0E8FF41EC100BD5
:1028900016B0BDEC0E8B04B0BDE8F08D18E09FEDD6
:1028A000BEAB9FEDBF8B002871D1B848804522D1C7
:1028B00005F1804010F5801008BFBAF1000F07D075
:1028C000B3450ADC002CA8BF9DED260BE0DA0DE035
:1028D000B0EE490AF0EE690ADAE7002C06DA9DED5F
:1028E000260B51EC100B00F0B9FF6FE0AE487844B6
:1028F00090ED000BCCE7D8454DD1002C48DA2EB135
:1029000086423AD1BAF1000F42D126E0BAF1000F67
:1029100013D00220FDF7EBFD00F0F6FD8DED020B6C
:102920009DED240B8DED000B10EE900A039961F3E1
:102930001E0003909DED020BAAE78DED02AB9DED0D
:10294000240B1AEE901A10EE900A8DED000B61F335
:102950001E0003909DED020B9AE78DED028B9DED1D
:10296000240B18EE901A10EE900A8DED000B61F317
:102970001E0003909DED020B8AE709DA9DED240B02
:1029800051EC190B53EC102B01F030F81EE020E055
:102990009DED240B7CE786421BDAB4F1804F0DD00D
:1029A000A4F10050B0F1FF5013D1002D11DB9DEDCB
:1029B000240B51EC100B00F003FF07E09DED240BFE
:1029C00053EC102B51EC100B00F0C2BC41EC100B7F
:1029D0005EE79DED240B51EC100B00F0B6FDBAF153
:1029E000000FCDE90E0142D19FED710B46B3A6F168
:1029F000E040B0F17F600CD05E4538D1002D00DAA8
:102A0000A7B3022F0CBF01204FF0FF3001F075F982
:102A1000DCE7002D01DD002C0DDA002D01DD002C9E
:102A20001FDB002D16DA002C14DB012F08BF9FEDF1
:102A3000620B3FF42DAFB0EE4A0AF0EE6A0A27E7C8
:102A4000022F18BF002D0CD0012F0AD1002DFFF648
:102A50001FAF06E0002DB8BF002C08DA012F3FF4AD
:102A600017AFB0EE480AF0EE680A11E71BE001204C
:102A700000EBE57050EA070115D0791EB0EE498AE7
:102A8000F0EE698A084308BF9FED4D8B4E48002544
:102A9000804570DD4D494E48884514DDB0420DDB60
:102AA000002C19DB2FE00120FDF721FD16B0BDEC55
:102AB0000E8B04B0BDE8F04D00F016BDB34502DC4E
:102AC000002C09DC1FE0864202DA002C1BDA03E04E
:102AD0005E452BDD002C16DD0220FDF708FD00F021
:102AE00013FD8DED020B53EC1A2B51EC180B01F07A
:102AF00057F9CDE900010399019861F31E00039095
:102B00009DED020BC4E60220FDF7F1FC00F00CFD88
:102B100010EE901A18EE900A8DED020B8DED008BE1
:102B200061F31E0003909DED020BB1E69DED0E0BCF
:102B300053EC192B51EC100B01F03EFB9FED260BD3
:102B4000CDE9080153EC102B9DED080B51EC100B57
:102B500001F026F99FED221B53EC112B01F054FAE2
:102B60009DED081B53EC112B01F01AF99FED1E1B74
:102B700053EC112B3CE08CE0FFFF1F00FFFF0F0028
:102B8000000000000000F03F0000F03F0000F07F78
:102B90000000404301FCFFFF000000000000F07F48
:102BA0000000000000000000361C000000000000D3
:102BB0000000000000000080000000000000F0FFA6
:102BC000000000000000F0BF0000E0410000F04302
:102BD000FFFFEF3F00000000000000000000D03FBA
:102BE000555555555555D53F000000000000E03FB4
:102BF00001F00AFA9DED080B41EC1A0B53EC102B77
:102C000051EC100B01F0CCF853EC1A2B01F0C8F882
:102C100041EC1A0B9FEDFE0B53EC102B9DED080BB6
:102C200051EC100B01F0BCF841EC1B0B9FEDFA0BC3
:102C300051EC1A0B53EC102B01F0B2F841EC1A0BCB
:102C40009FEDF70B53EC102B9DED080B51EC100B87
:102C500001F0A6F853EC1A2B01F0AEFA41EC1A0B76
:102C600051EC1B0B53EC1A2B00F004FE0690CDE93F
:102C700006519DED060B53EC1B2B51EC100B01F094
:102C80009BFA53EC1A2B01F0BFF941EC100B00F04A
:102C9000A1B90020B6F5801F0EDA9FEDE30B53ECCF
:102CA000102B9DED0E0B51EC100B01F079F8CDE9D6
:102CB0000E016FF034000E4600EB2650A0F2FF37F5
:102CC000C6F31300DA4940F07F6646F0405688426A
:102CD000D8BF002408DDD7498142C8BF012403DCE6
:102CE0000024A6F580167F1CD348784400EBC4006E
:102CF0000F9690ED00CB9DED0E0B53EC1C2B51EC81
:102D0000100B01F059FA9DED0E0B41EC1B0B53EC2F
:102D10001C2B51EC100B00F0ADFD41EC100B51ECF5
:102D2000190B53EC102B00F061FE41EC1D0B51EC24
:102D30001B0B53EC1D2B01F033F841EC1A0BBF4871
:102D40008DED10AB7844109590ED000B4FF00050D6
:102D500040EA660000EB84408DED080B00F5002092
:102D600009909DED080B53EC1C2B51EC100B01F05E
:102D700023FA9DED0E1B53EC112B01F045F941ECAC
:102D8000100B53EC102B9DED100B51EC100B01F0C0
:102D900007F89DED080B41EC1C0B53EC102B9DED3F
:102DA000100B51EC100B00F0FBFF53EC1B2B01F050
:102DB0002BF953EC1C2B01F0FFF953EC1D2B00F009
:102DC000EFFF41EC1C0B53EC1A2B51EC1A0B00F0EB
:102DD000E7FF41EC1B0B9A480621B0EE4B0AF0EEE0
:102DE0006B0A784400F0E0FAB0EE401AF0EE601A98
:102DF000B0EE41DAF0EE61DA53EC1B2B51EC1B0B19
:102E000000F0CEFF53EC1D2B00F0CAFF9DED100B20
:102E100041EC1B0B53EC1A2B51EC100B00F02AFD6C
:102E200053EC1C2B00F0BCFF53EC1B2B00F022FDDD
:102E30009DED100B41EC1B0B53EC102B51EC100BC8
:102E400000F0AEFF41EC1D0B9FED7FEB53EC1E2B12
:102E500000F010FD53EC1B2B00F00CFD0890CDE9A9
:102E600008519DED080B53EC1E2B51EC100B01F09B
:102E7000A3F953EC1D2B01F09FF953EC1B2B01F030
:102E8000C3F89DED080B41EC1D0B53EC102B9DED91
:102E9000100B51EC100B00F083FF41EC1B0B53ECBB
:102EA0001A2B51EC1D0B00F07BFF9DED080B41EC44
:102EB0001A0B53EC102B51EC1C0B00F071FF53EC70
:102EC0001A2B00F0D7FC41EC1A0B51EC1B0B53EC06
:102ED0001A2B00F0CFFC0C90CDE90C519DED0C0BA2
:102EE00053EC1B2B51EC100B01F066F953EC1A2B31
:102EF00001F08AF841EC1B0B9FED550B53EC102BA6
:102F00009DED0C0B51EC100B00F04AFF41EC1A0B3D
:102F10009FED510B51EC1B0B53EC102B00F040FFBD
:102F200041EC1B0B9FED4E0B53EC102B9DED0C0B4E
:102F300051EC100B00F034FF53EC1B2B00F09AFC0B
:102F400041EC100B4848784400EBC40090ED001BA6
:102F500051EC100B53EC112B00F08CFC41EC1B0BD3
:102F6000384600F0CAFECDE9080153EC1B2B51ECAA
:102F70001A0B00F07FFC41EC100B3C48784400EB4E
:102F8000C40090ED00CB51EC100B53EC1C2B00F067
:102F900071FC9DED081B53EC112B00F06BFC0690AF
:102FA000CDE906519DED080B53EC102B9DED060B62
:102FB00051EC100B01F000F953EC1C2B01F0FCF864
:102FC00053EC1A2B01F0F8F853EC1B2B01F01CF812
:102FD00041EC100B9DED261B53EC102B8DED001BCF
:102FE00000959DED260B51EC100B00F0D9FE9DEDE8
:102FF000000B41EC1A0B53EC102B9DED260B51EC02
:10300000100B01F0D9F89DED061B53EC112B2FE0AE
:10301000000000604715F73FFE822B654715F73F1C
:1030200044DF5DF80BAE543E00000000000040435A
:103030008E9803007AB60B00B2170000E01700006C
:10304000EA16000000000000000000000000084038
:10305000000000E009C7EE3FFD033ADC09C7EE3F80
:10306000F5015B14E02F3EBE761500003015000020
:1030700000F096FE53EC1A2B00F0FCFB9DED060BC6
:1030800041EC1A0B53EC102B9DED000B51EC100B87
:1030900000F086FECDE90C019DED0C0B51EC1A0BF6
:1030A00053EC102B00F0E6FBCDE902010C46AA49D7
:1030B0008C422FDB611A084318D19DED0C0B53ECA9
:1030C000102B9DED020B51EC100B01F075F841EC4B
:1030D0001B0B9FEDA30B51EC1A0B53EC102B00F0C4
:1030E000C9FB53EC1B2B00F059FF2DD20220FDF73A
:1030F000FEF900F009FA10EE901A18EE900A8DED24
:10310000020B8DED008B61F31E0003909DED020B11
:10311000FFF7BEBB944A24F00041914214D3934977
:10312000214408437FF4EFAC9DED0C0B53EC102BC6
:103130009DED020B51EC100B01F03EF853EC1A2BF5
:1031400000F02CFF7FF6DFAC24F000408849894A6C
:10315000002601EB205182422BDA481C4FF48011EB
:1031600021FA00F02044844AC0F30A517A44A1F2C3
:10317000FF3192ED000B814A8DED080BCA4020EA29
:103180000202C0F3130040F48010C1F1140120FAD0
:1031900001F60992002CB8BF76429DED080B53EC66
:1031A000102B9DED0C0B51EC100B01F005F8CDE947
:1031B0000C019DED0C0B51EC1A0B53EC102B00F095
:1031C00059FB9FED6F0B0890CDE9085153EC102B84
:1031D0009DED080B51EC100B00F0E2FD41EC1B0BD8
:1031E0009FED690B53EC102B9DED080B51EC100B70
:1031F00000F0D6FD9DED0C0B41EC1C0B53EC102B9D
:103200009DED080B51EC100B00F0D6FF53EC1A2B80
:1032100000F0FAFE9FED5E1B53EC112B00F0C0FD99
:1032200053EC1C2B00F026FB41EC1A0B51EC1B0B52
:1032300053EC1A2B00F01EFBCDE902019DED020BB1
:1032400053EC1B2B51EC100B00F0B6FF53EC1A2B78
:1032500000F0DAFE9DED020B41EC1A0B53EC102B43
:1032600051EC100B00F09CFDCDE908014A489DEDA2
:10327000080B0521784400F097F89DED081B51ECF0
:10328000100B53EC112B00F08BFD9DED021B53EC4A
:10329000112B00F0B9FECDE906019DED020B53ECB8
:1032A0001A2B51EC100B00F07BFD53EC1A2B00F0A5
:1032B000E1FA9FED3B0B41EC1A0B53EC102B9DED0B
:1032C000060B51EC100B00F077FF9DED060B41EC67
:1032D0001B0B53EC102B9DED020B51EC100B00F06F
:1032E0005FFD53EC1B2B00F081FB53EC1A2B00F01D
:1032F00063FF9DED021B53EC112B00F05DFF53ECBF
:10330000192B00F081FECDE9020101EB06500115F9
:103310000029C8BF039015DC9DED020B324651EC2D
:10332000100B01F06AF8FFF7EEF9042808BF00F06F
:10333000FBF832469DED020B51EC100B01F05DF8ED
:10334000CDE902019DED020B51EC180B53EC102B53
:1033500000F026FDFFF73ABB00009040000000009F
:10336000FE822B654715973C00CC904000346F3FA0
:1033700001FCFFFF0000E03FB8130000FFFF0F005B
:1033800000000000432EE63F396CA80C615C20BEB3
:10339000EF39FAFE422EE63F8812000000000000DE
:1033A000000000000000004070B504462DED028BC7
:1033B0004D1E00EBC500B0EE408AF0EE608A90ED45
:1033C000000B35F0060017D053EC182B51EC100B06
:1033D00000F0E6FC41EC100B6D1E04EBC50090ED17
:1033E000001B51EC100B53EC112B00F043FA41EC95
:1033F000100B35F00600E7D1022D36D0042D1CD07D
:10340000062D1CBFBDEC028B70BD53EC182B51EC8C
:10341000100B00F0C5FC94ED0A1B53EC112B00F0CF
:1034200029FA53EC182B00F0BBFC94ED081B53EC6D
:10343000112B00F01FFA41EC100B53EC182B51EC40
:10344000100B00F0ADFC94ED061B53EC112B00F0BB
:1034500011FA53EC182B00F0A3FC94ED040B53EC81
:10346000102B00F007FA41EC100B53EC182B51EC29
:10347000100B00F095FC94ED021B53EC112B00F0A7
:10348000F9F953EC182B00F08BFC94ED001B53EC76
:10349000112B00F0EFF9BDEC028B41EC100B70BD6D
:1034A0009FED070B10B553EC102B9FED070B51EC64
:1034B000100B00F09BFA41EC100B10BD0000000057
:1034C0000000000000000000000000000000F03FCD
:1034D00010B553EC112B51EC100B00F0CBF941EC73
:1034E000100B10BD000000009FED050B10B553EC54
:1034F000102B51EC100B00F079FA41EC100B10BDC1
:1035000000000000000000009FED050B10B553EC1B
:10351000102B51EC100B00F043FC41EC100B10BDD4
:1035200000000000000000709FED050B10B553EC8B
:10353000102B51EC100B00F033FC41EC100B10BDC4
:103540000000000000000010704782B0CDE90001CB
:1035500021F0004001909DED000B02B051EC100BEA
:103560007047000003490A685206FCD5C2B24A609F
:10357000704700000010014086B0FDF7C9FAFEF761
:10358000B9FDFEF731FCFEF791FCFEF7C1FCFEF73A
:103590000DFDFEF759FDFEF78BFD132263496448CC
:1035A000FEF770FB0126634F634CDFF890A14FF4E8
:1035B000007800254FF48069206901280FD104F1BB
:1035C00044000DF1040C0FC88CE80F00206C009033
:1035D00004F134015A480EC9FCF7CCFE256120697C
:1035E000401C03D157A0FCF7C5FE256101213846D8
:1035F000FDF776FA20B9666157A06662FCF7BAFE5D
:1036000002213846FDF76CFA20B9666158A0A6621F
:10361000FCF7B0FE04213846FDF762FA20B9A66136
:1036200059A0E662FCF7A6FE08213846FDF758FAD5
:1036300020B9A66155A02663FCF79CFEA06978B16D
:103640005348FDF7AFFE00215248FEF703F901226F
:1036500049465046FDF749FA4FA0A561FCF78AFE9E
:10366000606978B15048FDF79DFE00214F48FEF794
:10367000F1F8012241465046FDF737FA4CA065614A
:10368000FCF778FEA06820B3606910BB606C08B1DD
:10369000012200E0002210213846FDF726FA434BB4
:1036A000606D1A68411ED162401E196800EBD0702F
:1036B0004010486300211846FEF768F83A48FDF7C5
:1036C00031FEA5606562002241465046A562FDF7C5
:1036D0000CFAE06800283FF46FAFA06900287FF47F
:1036E0006BAFA06C08B1002200E001222021384617
:1036F000FDF7FBF92749A06D0B68421EDA62401EF8
:10370000096800EBD0704010486300212148FEF7A3
:103710003DF81F48FDF706FEE560E56200224946D8
:1037200050462563FDF7E1F946E7000090010020CF
:10373000A401002000080240000000200014024004
:1037400030450008CAE4C8EBB8F1CABDB2BBD5FD2C
:10375000C8B7A3A10A000000D2D1B5BDB4EFD6E12D
:10376000CFF2D4CBB6AFC7B0CFDECEBBA3A10A0099
:10377000D2D1B5BDB4EFD6E1CFF2D4CBB6AFBAF368
:10378000CFDECEBBA3A10A006300000064000000EE
:103790007000002000010020BEB6CFF2D4CBB6AF3F
:1037A000CDA3D6B9A3A10A0048010020B80000208B
:1037B000D6E1CFF2D4CBB6AFCDA3D6B9A3A10A0040
:1037C00000B52DED048B83B041EC190B00F028FC03
:1037D00041EC180B18EE100A18EE901A8DED008BC4
:1037E000002818BF0120084320F00040C0F17F608E
:1037F00000F1E040C00F14D019EE101A19EE900A33
:103800008DED009B002918BF0121084320F00040E6
:10381000C0F17F6000F1E040C00F04BF0120FCF761
:1038200066FE51EC180B03B0BDEC048B00BD00002C
:1038300010B500290AD00878002807D00548784438
:10384000FCF7B6FF002801D0002010BD02487844E4
:1038500010BD00006E0D0000660D000081F00041FB
:10386000704780F00040704721F00041704720F021
:103870000040704710B591EA030F48BF83F0004342
:1038800000F1A284841A71EB030C05D2121943EBE8
:103890000C03001B61EB0C01DFF824E14FEA11542B
:1038A000A4EB135C1EEA430F18BF9EEA445F73D07B
:1038B00023EA0E03DCF1200E21EA045143F48013C5
:1038C00032D322FA0CFE10EB0E0023FA0CFE41EB71
:1038D0000E01CCF1200E03FA0EFE10EB0E0051F19A
:1038E0000001B1F5801FCCF1200E32D201EB045162
:1038F00012FA0EF2BDE8104058BF7047401C38BFA6
:103900005FEA420218BF7047002814BF20F0010090
:1039100041F100014FEA410313F5001F38BF704722
:10392000A1F1C04100F034BB012A43EB0302ACF12A
:10393000200CDCF11F0E32BF4FF0000E23FA0CF307
:1039400010EB030041EB0451B4EB115FD0D0A1EBBD
:10395000045101F5801149085FEA300001EB045180
:103960000ED350F1000038BF12FA0EFE08D1BDE8A8
:103970001040C9E7401C38BF5FEA4202CAD1C3E722
:10398000BDE810404FEA410313F5001F38BF7047F0
:10399000A1F1C04100F0FCBA9EEA445F08D011EAF0
:1039A0005E0FBDE8104004BF01F0004100207047E9
:1039B000BDE8104070B500F09DFA00BF64FBBE3E4C
:1039C0000000E0FF02494FF0000000F0E4BC00BF3F
:1039D0000000F87F491058BFC1F140415B1058BF4B
:1039E000C3F140438B42EFF3008070472DE9C041A3
:1039F00030B4DFF8A0C23CEA111418BF3CEA13143B
:103A000000F0EC8081EA03051CEA111444EAD57445
:103A100018BF1CEA131500F0C780A4EB05044FF093
:103A2000004545EAC12145EAC32341EA505143EA32
:103A3000525304F17F74994204F500344FEAC020D8
:103A40004FEAC22208BF904200F09C804FEA136503
:103A50000FF24016765D4FEA134506FB05F7C7F1F6
:103A6000807706FB07F74FEAD737A7FB0368764254
:103A7000C8F58038A7FB06CE38BFA8F1010807FBC0
:103A800008E64FF0000EA6FB028CE6FB03CEDCF14D
:103A9000000CCEF1004E38BFAEF1010EA6FB0C5863
:103AA0004FF000074FF00005E6FB0E87A1FB08C6AC
:103AB000A0FB07CE16EB0E0645F10005E1FB0765FE
:103AC00015F1E04E7EBFA4F580345FEA46066D41F5
:103AD00016F1800745F100054FEA17274FEA066601
:103AE00047EA0567A6F1DE46B6F1805F4FEA152585
:103AF0001FD9384624F0010C05EBC471BCF1FE6FF0
:103B000001EB0C1102D8F0BCBDE8008124425CBF7F
:103B100001F5801E9EEAC47F02D4F0BCBDE800819E
:103B2000244238D4F0BCA1F1C041BDE8004100F00E
:103B30002FBA4FEAD22242EA43524FEAD323A7FBDD
:103B400002864FEAD02040EA415007FB03661EEA96
:103B50000E0F4FEAD12105FB026658BFA6EB0056B7
:103B6000B6EB00564FEA520E4EEAC37E18EB0E0E2D
:103B700056EB530EBDD518EB02085E417F1C55F184
:103B80000005B6E74FF480154FF000074FF0000630
:103B90004FF00008ADE7F0BC4FF0000001F1C0416C
:103BA00001F00041BDE8008111EA0C1F0CEA131579
:103BB00000D00CE013EA0C1F00F025804FF000004D
:103BC000F0BC81EA030101F00041BDE80081F0BCD6
:103BD000BDE8004181EA030100F0DAB9F0BCBDE8BC
:103BE000004170B500F086F9097EFC3E00F007B890
:103BF00081EA03014FF0000001F00041704781EAC3
:103C0000030100F0C5B9F0BCBDE800414FF0000071
:103C100021497047FFFDFBF9F7F5F4F2F0EEEDEB0B
:103C2000E9E8E6E4E3E1E0DEDDDBDAD8D7D5D4D3BA
:103C3000D1D0CFCDCCCBCAC8C7C6C5C4C2C1C0BF06
:103C4000BEBDBCBBBAB9B8B7B6B5B4B3B2B1B0AF0C
:103C5000AEADACABAAA9A8A8A7A6A5A4A3A3A2A1F0
:103C6000A09F9F9E9D9C9C9B9A99999897979695AB
:103C700095949393929191908F8F8E8E8D8C8C8B47
:103C80008B8A8989888887878685858484838382CF
:103C9000828181800000FF070000F87F4FEA410326
:103CA0004FEA5353A3F58063D3F11E03C8BFD3F18A
:103CB000210C0CDD4FF0004242EAC12242EA505290
:103CC00032FA03FC8CEAE17CACEBE1707047102B1C
:103CD000C4BF0020704703F5787CBCF1FF3F04D0DF
:103CE0006FF0004282EA2100704770B500F002F9DF
:103CF0004992248000207047F2E710F0004248BF4C
:103D00004042B0FA80F310FA03F10AD0C3F11D0368
:103D100003F580634FEA415002EB035202EBD121DD
:103D200070474FF00000704751EA030C17D41CF5A0
:103D3000801F58BFBCF5801F00F10680994218BF54
:103D4000704708BF9042704707D711F5801F58BFD2
:103D500013F5801F19D499427047894270471CF5AA
:103D6000801F08D5BCF5801FF7D58B4218BF704760
:103D700008BF824270474FF4001C1CEB410F38BF54
:103D80001CEB430F01D28B42704770B500F0B2F8C4
:103D9000922449004FF000514FF08053FFF71ABEB4
:103DA000DFF848C170B51CEA111E1EBF1CEA1315CE
:103DB0009EEA0C0F95EA0C0F00F06F8081EA030475
:103DC00023EA4C134EEAD47E21EA4C1141F48011CF
:103DD00043F48013AE44A1FB024CA0FB0365AEF19B
:103DE0007F7E361955EB0C05A1FB034C4CF100030B
:103DF000A0FB021C16EB0C06654153F100030942BF
:103E000018BF46F0010613F4007F0BD14FEA0331CF
:103E10004FEA0530340341EA155140EA16506FF07D
:103E200003020AE04FEAC3214FEAC520F40241EA47
:103E3000555140EA56506FF0020202EB2E4201EB60
:103E4000025585EACE710AD05FEA440C18BF24F00F
:103E5000004450F1000041F1000120EAD47040F22A
:103E6000FE7C624500D270BDA84214BF4FF0804472
:103E70004FF04044002E08BF0024BEF1806FA8BF61
:103E8000A1F1C041BDE8704080F282804FF0000097
:103E900001F1C04101F0004170479EEA0C0F0CEAAD
:103EA000131518BF95EA0C0F06D04FF0000081EAF9
:103EB000030E0EF0004170BD00F01CF88900013EB9
:103EC00000F007B800F009B84FEA430C5FEA5C5C09
:103ED00008D081EA030100F05BB84FEA410C5FEAC9
:103EE0005C5CF6D14FF00000014970470000FF070D
:103EF0000000F87F0EF1020E2EF0030E5EF8046B48
:103F0000364205D4012A43EB030515F5001F12D8EC
:103F1000012841EB010C1CF5001F0CD80ED14FEA13
:103F2000D17C15F5001F0CEB4C0C0CF1020C08BFFA
:103F30004CEBD37C04E04FF0080C01E04FEAD37C5B
:103F40000CEB4C0526FA05F606F00706B6F1040C54
:103F500006D20EEB860CBDE870404CF0010C6047B9
:103F6000DFE80CF0090B02024FF000414FF00000B7
:103F7000A1F5002170BD19461046012851EB01043E
:103F800018BFD4F5001484BF002001F0004170BDBB
:103F90000808A0F500114FEA3101704753EA010CFF
:103FA00017D41CF5801F58BFBCF5801F00F1068098
:103FB0008B4218BF704708BF8242704707D713F57E
:103FC000801F58BF11F5801F19D48B4270479B4248
:103FD00070471CF5801F08D5BCF5801FF7D59942A6
:103FE00018BF704708BF904270474FF4001C1CEB8D
:103FF000430F38BF1CEB410F01D2994270470FB4F9
:104000000CBC03BCFFF7C1BE91EA030F10B581F0F1
:1040100000413FF537AC83F0004300F0D5B8000015
:104020002DE9F04101F5801CBCF5001FC0F2A9800C
:104030004FEA115C21EA0C510CF1FD0C41F48011A6
:104040005FEA5C0C0CF5C07C01D34000494130A410
:10405000890241EA905187028E0E0A0CA45D04FB8E
:1040600004F602FB06F6C6F14046A4FB0662F60D16
:1040700046EA422606FB06F4A4FB01235242C3F1A2
:10408000404338BF5B1EA6FB02420024E6FB03242C
:10409000D20B42EA4446A6FB0623A1FB02E2A3FBA5
:1040A00007E4E3FB61426442C2F1404E38BFAEF127
:1040B000010EA6FB04234FF00002E6FB0E32A2FB2A
:1040C00003463400E2FB6264A1FB06E6A4FB07E8BA
:1040D000E4FB61687642C8F1405838BFA8F1010896
:1040E000A2FB06E4A3FB08E5E2FB6854A1FB05E69E
:1040F000A7FB04E8E1FB648618F1200556F10006F1
:10410000A809A8F11B08B10908F03F08B8F10A0F87
:1041100040EA86601CD901EB0C51BDE8F08100BF7C
:10412000FCF5EEE8E2DDD8D3CFCBC7C3C0BDB9B64E
:10413000B4B1AEACA9A7A5A3A19F9D9B9A98969553
:104140009392908F8D8C8B898887868584838281DA
:10415000A0FB006800FB01F208EB4208B8EB8728DF
:1041600007D5341858EB0104D5D5401C51F1000196
:10417000D1E7341A78EB0104CDD4401E71F100016F
:10418000C9E75FEA4C0C5FEA9C5C0DD105D34FF0A8
:10419000000001F00041BDE8F081BDE8F04170B5DC
:1041A000FFF7A8FE6DDBFFBEBDE8F0414FF0000059
:1041B000004970470000F87F10B591EA030F48BF2F
:1041C00083F000433FF55EAB841A71EB030C07D21A
:1041D00012198CF0004C43EB0C03001B61EB0C013B
:1041E000DFF8A4E14FEA1154A4EB135C1EEA430F7D
:1041F00018BF9EEA445F00F0B08023EA6E0352428B
:1042000021EA0451C3EB6E0338BF5B1EDCF1200EC4
:1042100025D322FA0CFE10EB0E0043FA0CFE41EB04
:104220000E01CCF1200E03FA0EFE10EB0E0051F140
:104230000001CCF1200E29D412FA0EF201EB045148
:10424000BDE8104058BF7047401C1CBFB2F1004F82
:10425000704700280CBF491C20F00100704712EB8A
:10426000020E43EB030218BF4FF0010E4EEA42026A
:10427000ACF1200CDCF11E0E54D943FA0CFE10EB0D
:104280000E0051F1FF31CCF11E0ED5D50EF1010E0D
:1042900012FA0EFE404141EB010101EB445C5FEA82
:1042A0005C5C10D910EBDE7001EB045138BFBEF13D
:1042B000004FBDE8104018BF704700280CBF491CD4
:1042C00020F00100704730D24FEAD42C11F50011D4
:1042D00024F400641BD0B1FA81F20B3AA41AA41E94
:1042E000D2F12003914030FA03F31943904001EBDF
:1042F000CC71002C01EB0451BDE81040A8BF704701
:1043000001F1C0414FF0000001F000417047B0FAE8
:1043100080F310FA03F100D110BDE41A173C4805F0
:10432000C90AE4E701EB045110BD491001EB045147
:10433000BDE810404FEA300002E04FF00001704746
:104340004A0008BF0042F8D0B2F5001F28BF7047EE
:1043500001F000414FF0000070479EEA445F07D033
:1043600011EA5E0FBDE8104004BF00210020704735
:10437000BDE8104070B5FFF7BDFD00BF40DFF63E61
:1043800083F00041104670470000E0FF4FF040709E
:10439000E1EE100A70470CF00F03092B08BF08204C
:1043A00000F059800A2B0BD0082B18BF704708BFAC
:1043B0001CF0400F0AD04FF000004FF00001704792
:1043C0001CF0400F18BF4FF0004070471CF0100F5A
:1043D00008D020F0704300F07F4242EAD3014FEA58
:1043E0004370704700F0604021F07F4242EA0002D3
:1043F00001F07F4040EA727070474FF0FF0C4CF4C0
:10440000E06C1CEA11531CBF9CEA030C9445C2BF2C
:10441000DA4201EB02517047002B0DD0BCF1000FC6
:104420000FD0002A01F00041A4BF41F0E04141F06B
:104430007F614FF00000704701F000414FF0000035
:10444000704750EA01334FF09B0C18BF4CF0806C62
:104450007FF4B8AA70471CF4801F11D01CF4E02F21
:1044600003D06FEACC31490070474FF04050EFF372
:10447000008222F0704242EA000282F30088704714
:104480004FF0000070470000000000000000010233
:1044900003040607080900000000010203040000ED
:1044A000000000000000F03F000000000000F83FA6
:1044B00000000000000000000000004003B8E23FE0
:1044C000000000000000000006D0CF43EBFD4C3E92
:1044D000033333333333E33FFFAB6FDBB66DDB3F87
:1044E0004D268F515555D53F01411DA96074D13FCF
:1044F00065DBC9934A86CD3FEF4E454A287ECA3FC9
:104500003E5555555555C53F93BDBE166CC166BF4A
:104510002CDE25AF6A56113FF16BD2C541BDBBBE43
:10452000D0A4BE726937663E0000000000000000A3
:10453000D6E1CFF2CBD9B6C8CEAA25640AD6E1CF50
:10454000F2CAB1BCE425640ABEB6CFF2CBD9B6C874
:10455000CEAA25640ABEB6CFF2CAB1BCE4CEAA2563
:10456000640A666C616731CEAA25640A666C61676D
:1045700032CEAA25640A666C616733CEAA25640A26
:10458000666C616734CEAA25640A0000BC46000848
:104590000000002070000000C40100082C47000843
:1045A00070000020E0070000E0010008100100009A
:1045B00043000000F8FFFFFF004040404040404003
:1045C00040404141414141404040404040404040E6
:1045D000404040404040404040050202020202028A
:1045E00002020202020202020220202020202020D9
:1045F00020202002020202020202909090909090ED
:1046000010101010101010101010101010101010AA
:10461000101010100202020202028888888888881E
:10462000080808080808080808080808080808080A
:104630000808080802020202400000000000000012
:10464000000000000000000000000000000000006A
:10465000000000000000000000000000000000005A
:10466000000000000000000000000000000000004A
:10467000000000000000000000000000000000003A
:10468000000000000000000000000000000000002A
:10469000000000000000000000000000000000001A
:1046A000000000000000000000000000000000000A
:1046B00000000000000000000000000000000000FA
:1046C00000000000000000000000000000000000EA
:1046D00000000000000000000000000000000000DA
:1046E00000000000000000000000000000000000CA
:1046F00000000000000000000000000000000000BA
:1047000000000000000000000000000000000000A9
:104710000000000000000000000000000100000098
:0C47200010000000000000000024F40065
:040000050800018965
:00000001FF
